:100000000C9489030C94A5050C94D0030C94D00394
:100010000C94D0030C94D0030C94D0030C94D00314
:100020000C94D0030C94D0030C9468200C943B21C6
:100030000C9492170C94D0030C94D0030C94D0031E
:100040000C94D0030C94D0030C94D0030C94D003E4
:100050000C94D0030C94FA170C94D0030C94D00396
:100060000C94D0030C94D0030C94D0030C94D003C4
:100070000C94D0030C94D0030C94D0030C94D003B4
:100080000C94D0030C94D0030C94D0030C94D003A4
:100090000C94D0030C94D0030C94D0030C94D00394
:1000A0000C94D0030C94D0030C94D00314001A00C9
:1000B00008001500170004621661077409680A0039
:1000C0001D001B000600190005000000000004547C
:1000D0002A002841130012000C0018001C00E50043
:1000E0000F710E740D780B00000037003600100001
:1000F00011000000000000002C432B4200003500DE
:100100002D002E000000E1002F61307431680000E6
:100110000000330034003800000000000000000040
:100120000000000000002600250024000000E5007B
:100130002371227421780000000020001F001E009F
:100140000000000000000000270000000000350053
:100150002D002E000000E1002F6130743168000096
:1001600000003300340038000000000000000000F0
:100170003900290000002600250024000000E500C9
:100180002371227421780000000020001F001E004F
:100190000000000000000000270000000000AC008C
:1001A000AE00AB00000001000100010001000000F2
:1001B000000081007F0080000000000000000000BF
:1001C0004C000000000000000000000000004F0094
:1001D00051005200500000004D004E004B004A00FC
:1001E0000000000000000000000000004500450283
:1001F0004501450445036800680268016804680316
:1002000069006902690169046903000000000000D7
:1002100000000000000000000000000000000000DE
:1002200000000000000000000000000000000000CE
:1002300000000000000000000000000000000000BE
:1002400000000000000000000000000000000000AE
:1005A0000000000000000000000000003A003B00D6
:1005B0003C003D003E0044004500010001000100F8
:1005C000005C0100010001000100000000000100CA
:1005D0000100010043004200410040003F004C0583
:1005E00029030100010001000100010001000100D8
:1005F00001000000000001000100010004033000C0
:10060000000010034D0069006E00690044006F0097
:10061000780000001C0354006800610074002D0085
:10062000430061006E0061006400690061006E00BB
:1006300000000403090409023B00020100A0FA09BA
:100640000400000103010100092111010001224001
:10065000000705810308000A0904010001030000E6
:1006600000092111010001224F000705820320002B
:100670000A1201100100000008EDFE6030010001C7
:1006800002030105010902A10185020901A100057A
:1006900009190129051500250195057501810295A6
:1006A00001750381010501093009311581257F9507
:1006B000027508810609381581257F950175088125
:1006C00006050C0A38021581257F950175088106FB
:1006D000C0C005010906A101050719E029E71500B9
:1006E00025019508750181029501750881010508AC
:1006F000190129059505750191029501750391016F
:100700000507190029FF150026FF009506750881C9
:1007100000C011241FBECFEFDAE0DEBFCDBF04B6AC
:1007200003FE27C08091EE019091EF01A091F001AE
:10073000B091F1018730904BA740B04BD1F41092AB
:10074000EE011092EF011092F0011092F10114BE2F
:1007500084B7877F84BF0FB6F894A8958091600016
:10076000886180936000109260000FBEE0E0F8E3C3
:10077000099511E0A0E0B1E0E2ECF6E402C00590DA
:100780000D92AC32B107D9F721E0ACE2B1E001C083
:100790001D92AE3EB207E1F70E94971D0C945F23B5
:1007A0000C940000CF93DF93AAE1B1E04EE151E059
:1007B000C1E0D0E08D91E82FE295EF70F0E061A10B
:1007C0008F709E0101C0220F8A95EAF7922F9095B3
:1007D000962391A382A1822B82A34A175B0751F72C
:1007E000DF91CF91089508950C94F30308950C942C
:1007F000F6038091C001836088608093C0010E94ED
:10080000D203A5E1B1E061E070E08D91E82FE295BF
:10081000EF70F0E041A18F709B0101C0220F8A951B
:10082000EAF7922F9095942391A382A1822B82A321
:1008300081E0AA31B80749F7559A209AE4E3F1E03C
:10084000ACE2B1E011921D9281E0EC33F807D1F7F0
:100850000C94A2069F92AF92BF92CF92DF92EF923A
:10086000FF920F931F93CF93DF9380910101D0E00C
:10087000C0E0811102C0C4E0D0E08AE1E82E81E04E
:10088000F82E8E01045D1E4F6801AA24A394B12C9A
:1008900025E0922EF70181917F01E82FE295EF701C
:1008A000F0E021A18F70A50102C0440F551F8A9569
:1008B000E2F7CA01922F982B91A392A180958923E8
:1008C00082A350EA5A95F1F7E5E1F1E020E050E02B
:1008D00040E03191A32FA295AF70B0E090968C913B
:1008E00090E03F7002C0959587953A95E2F780FDBC
:1008F00039C0C501042E01C0880F0A94EAF7282BDD
:100900004F5F5F4F4530510521F7F60181916F012F
:10091000821721F031972083909200010E94D20328
:10092000FEE1EF16F1E0FF0609F0B4CF809100017F
:10093000882359F08150809300018823A9F08FE922
:100940009FE00197F1F700C0000081E0DF91CF91B7
:100950001F910F91FF90EF90DF90CF90BF90AF90DD
:100960009F90089580E0CBCFCC5CDE4F84E0F8010F
:1009700091918F0199938150D1F7E7CFCF93DF9376
:1009800080910101D0E0C0E0882311F0C4E0D0E004
:100990000E940A06009789F4CC5CDE4F30E020E02C
:1009A000F901E15CFE4F408149932F5F3F4F2430B6
:1009B0003105B1F7DF91CF91089581E090E0FACF52
:1009C000CF930E942A04C82F0E94BE04892BD9F01D
:1009D0005D9880913C018F5F80933C01863070F080
:1009E00080910101F0E0E0E0882311F0E4E0F0E024
:1009F000EC5CFE4F10821182128213820E94AA06C2
:100A00008C2FCF9108955D9A10923C01F7CF0E94F0
:100A10002A0480910101E4E0F0E0882311F0F0E085
:100A2000E0E0EC5CFE4F90E080E02191DC01A15C15
:100A3000BE4F2C93019684309105B9F70895E82FA5
:100A4000F0E0EC5CFE4F808108950895E8EDF0E061
:100A50008081806180838AE18A95F1F700C080916E
:100A6000D900817008950E942605809301010E949B
:100A70002605882321F00E949805789408950E9405
:100A80009C05FBCF0E94F9030E940705FDCF0E9441
:100A900033050E942605811102C00E944205089577
:100AA000509A08955098589A0895589A08950E9417
:100AB0005205489BFECF80E88A95F1F708950E9481
:100AC000520598E080E029B1880F2170822B20E840
:100AD0002A95F1F725E02A95F1F70000915099F752
:100AE00008950F931F93CF93082F0E945005C8E0DD
:100AF00010E0C15020F4CF911F910F910895C801CB
:100B00000C2E02C0959587950A94E2F780FF06C0E7
:100B10000E94550580E88A95F1F7EBCF5898FACFF7
:100B20000E945005589880E88A95F1F70C94550575
:100B30000E9450050C9455050E945205E89AE9E67A
:100B4000F0E080818C7F808308951F920F920FB612
:100B50000F921124EF92FF921F932F933F934F9385
:100B60005F936F937F938F939F93AF93BF93CF9335
:100B7000DF93EF93FF930E949005D0E0C0E010E078
:100B8000CE01815C9E4F7C01FC0180810E94710539
:100B90000E949005F7018081180F2196C430D1057D
:100BA00079F7812F0E9471050E949005F0E8FA956F
:100BB000F1F780E48A95F1F70E945F0580933E018A
:100BC0000E949005C0913E010E945F05D82F0E94AF
:100BD00090050E94520580913D01DC17C9F08160AB
:100BE00080933D01FF91EF91DF91CF91BF91AF9144
:100BF0009F918F917F916F915F914F913F912F9135
:100C00001F91FF90EF900F900FBE0F901F901895BF
:100C10008E7FE6CFEF92FF921F93CF93DF93F894EE
:100C20000E945005589825E02A95F1F700000E948F
:100C300052050E94550530E83A95F1F7489B09C0E6
:100C4000789481E090E0DF91CF911F91FF90EF9039
:100C500008950E945705D0E0C0E010E00E945F05B3
:100C6000FE01E15CFE4F7F0180830E945705F70182
:100C70008081180F2196C430D10581F70E945F054D
:100C8000C82F0E945705C113DBCF80913E010E94FF
:100C900071050E94570580913E010E9471050E94D6
:100CA00057050E9450050E945505789490E080E019
:100CB000CACFCF93DF93EC010E949E16BE0190E055
:100CC00080E0DF91CF910C940B14CF93FB01873E12
:100CD0002CE5920739F148F4853E2CE5920781F026
:100CE000863E9C45C1F0C1E013C0893E2CE59207C9
:100CF000F9F0D8F08A3E9C45B1F7C28180E10DC081
:100D0000C281CC2329F081E090E00E945906C0E026
:100D10008C2FCF910895C28181E0CC2361F00E9495
:100D20006D14F5CFC28182E0F8CFC28183E0F5CFA8
:100D3000C28184E0F2CF0E948E14EACF81E0089550
:100D40000C9465060E948B16811102C00E94FE164B
:100D50000C94F4030C94F70308950C94AC060C94D3
:100D6000AD0608950E9418100E94B1062FEF84E38B
:100D70009CE0215080409040E1F700C0000087E7F0
:100D800097E790930108809300080C942018FF9235
:100D90000F931F93CF93DF938C01FC01C081D1810E
:100DA00080915901811141C082818823C9F1CE010E
:100DB0000E946515F82E682FCE010E940915BE010C
:100DC0008F2D0E946D08EC01B8010E94A0068823B7
:100DD00009F486C0C63DFCE5DF0709F424C108F02C
:100DE00041C0C531ECE5DE0728F5C230FCE5DF0780
:100DF00008F095C0C1158CE5D80709F46CC0C13066
:100E0000DC4509F474C081E0809348018093490176
:100E1000C801DF91CF911F910F91FF900C949E0616
:100E2000CE010E943915F82ECACFCE010E94651559
:100E3000BE01C7CFC631DC4531F70E944C16F80120
:100E40009281992309F43BC18A7A91E009F490E0F8
:100E500090934301811131C189E20E94D5150E940E
:100E600019163EC0CB3D8CE5D80709F44AC020F5E1
:100E7000C73DFCE5DF0709F4FDC0C83DDC4519F6B8
:100E8000F80182818111FAC080914901811113C159
:100E900080914601909147010E94D01784369105B8
:100EA00008F009C180E20E946F0D88E20E94250CC3
:100EB00088E20E94120D14C0CC3DECE5DE0749F13A
:100EC000CD3DDC4509F09FCFF8018281882341F0B8
:100ED0000E94FE1605C0F801828181110E94B206AF
:100EE00080E0DF91CF911F910F91FF900895F8015D
:100EF00082818823A9F38091C00181608093C00121
:100F0000EFCFF8018281882359F380E00E94301EE0
:100F1000E7CFF8018281882319F382E0F7CFF80147
:100F20008281882309F474CF0E948B16811102C03C
:100F30000E94FE160E94A31690E09093E001809319
:100F4000DF01FE01E350FC458091DF018160E23169
:100F5000F105C8F4E255F84F0C940323C007CC0701
:100F6000D007D407D807DC07E007E407E807EC0759
:100F7000F007F407F807FC070008040808080C0845
:100F80008091DF0182608093DF018091DF010E9408
:100F9000A7160E941810A4CF8091DF018460F3CFC0
:100FA0008091DF018860EFCF8091DF018061EBCF1E
:100FB0008091DF018062E7CF8091DF018064E3CF21
:100FC0008091DF018068DFCF8091DF018460EACF0C
:100FD0008091DF018E7FD7CF8091DF018D7FD3CFCE
:100FE0008091DF018B7FCFCF8091DF01877FCBCFD7
:100FF0008091DF018F7EC7CF8091DF018F7DC3CFCE
:101000008091DF018F7BBFCF8091DF018F77BBCFD6
:101010008091DF018B7FEACF9091DF01892F97FBD1
:1010200087F98058B0CFF8018281882361F010924F
:1010300048010E94C417909345018093440182E0C7
:101040000E94680D4DCF8091480181110FC08091A1
:101050004401909145010E94D0178436910530F4E7
:1010600086E20E94250C86E20E94120D82E00E9418
:101070006F0D36CFF8018281882351F0109249011B
:101080000E94C417909347018093460180E2D8CF15
:101090008091490181110FC08091460190914701D3
:1010A0000E94D0178436910530F487E20E94250C07
:1010B00087E20E94120D80E2DACF85E3CECE8091E6
:1010C0004301811104C089E20E94DC15C8CE85E38A
:1010D000FBCF90E080E008950895972F70E025E021
:1010E000929F600D711D1124FB0198E2899FE00D14
:1010F000F11D1124EE0FFF1FE455FF4F85919491D0
:101100000895FC01EE0FFF1FE450FA4F8591949172
:101110000895CF93DF930E946D080E94400AEC016E
:101120008115904508F043C0C11580E4D80708F048
:1011300017C1C83ED10528F5C03ED10508F0A3C0AF
:10114000C83AD10580F4C53AD10508F092C0C13043
:10115000D10509F498C020F0C430D10508F093C03F
:10116000D0E0C0E090C0CF3BD10508F490C0CE01E4
:10117000805C9109C03CD10598F30E948108EC0184
:1011800082C0C11520E2D20750F4C11581E0D80712
:1011900008F079C0C03FD10518F3D06574C0C115FF
:1011A00020E3D20708F0D2C0CE019F70E6CFC11570
:1011B00085E5D80760F5C11524E5D20708F0FEC023
:1011C000C11582E5D80750F4C11521E5D20708F40E
:1011D000CAC0DC2FCC27C16FD06A55C09C2F969512
:1011E00096959E0123703327C115D34508F0D7C0CB
:1011F000C1E0D0E002C0CC0FDD1F2A95E2F720E26B
:10120000929FC0011124C82BD92BDC683CC0C115AA
:1012100029E5D207A8F4C11588E5D80708F0D3C09E
:10122000C11526E5D20708F09BCF8C2F0E94C00A7B
:10123000C82FD0E0DC2FCC27CC27DF71D06223C0B1
:10124000C1158AE5D80708F4C3C0CE0190568115B0
:10125000904208F085CF8D2F8F710E94C00ADD2744
:10126000D06290E0982F882788279F71C82BD92BB0
:101270000AC0C53AD10509F4B8C0C63AD10509F487
:10128000B7C0C3E8D0E4CE01DF91CF910895C83A4A
:10129000D10509F4B0C0C93AD10509F4AFC0CA3AC2
:1012A000D10509F4AEC0CB3AD10509F4ADC0CC3AB2
:1012B000D10509F4ACC0CB3BD10509F4ABC0CC3BA4
:1012C000D10509F4AAC0CD3AD10509F4A9C0C03BA3
:1012D000D10509F4A8C0CE3AD10509F4A7C0CF3A88
:1012E000D10509F4A6C0C13BD10509F4A5C0C23B94
:1012F000D10509F4A4C0C33BD10509F4A3C0C43B84
:10130000D10509F4A2C0C53BD10509F4A1C0C63B73
:10131000D10509F4A0C0C73BD10509F49FC0C83B63
:10132000D10509F49EC0C93BD10509F49DC0CD3B50
:10133000D10509F49CC0CE3BD10509F49BC0CA3B42
:10134000D10509F09AC0CAE2D6E49DCFCE01992713
:10135000D3FF03C0EC01D86C96CFEC01D06C93CFD7
:10136000DF70D06A90CFCE01E4E096958795EA953C
:10137000E1F783709C2F937021E030E002C0220FD0
:10138000331F9A95E2F73C68382BC695C695C37013
:1013900080E2C89FE0011124C22BD32B74CFC1E09F
:1013A000D0E002C0CC0FDD1F2A95E2F720E2929F29
:1013B000C0011124C82BD92BDA6865CFDC2FCC27CC
:1013C000C46FD06A60CFDC2FCC27C06FD06A5BCFF0
:1013D000CE0134E0969587953A95E1F78F70CF70FE
:1013E000C06ED0E0D06AD82B4ECFC1E8D0E44BCF4E
:1013F000C2E8D0E448CFC2EED4E445CFC9EED4E48D
:1014000042CFCAEED4E43FCFC5EBD4E43CCFC6EB29
:10141000D4E439CFC3EBD4E436CFC4EBD4E433CF38
:10142000C7EBD4E430CFCCECD4E42DCFCDECD4E476
:101430002ACFC3E8D5E427CFCAE8D5E424CFC2E950
:10144000D5E421CFC4E9D5E41ECFC1E2D6E41BCF59
:10145000C3E2D6E418CFC4E2D6E415CFC5E2D6E4A1
:1014600012CFC6E2D6E40FCFC7E2D6E40CCFCFE668
:10147000D4E409CFC0E7D4E406CFC0E0D4E403CF7E
:101480008238910549F1B0F48133910509F45CC0CB
:1014900048F48932910509F452C08A32910509F461
:1014A00058C008958533910509F444C089339105E6
:1014B00099F00895833E910531F138F4803E91050D
:1014C00091F0823E9105B1F00895863E910511F1AB
:1014D000873E910541F108952091DF012370C9F005
:1014E00080EE90E008952091DF0120FF12C089E393
:1014F00090E008952091DF0122FF0BC024FF2EC051
:1015000090E080E008952091DF0122FD2AC024FDB3
:10151000F7CF08952091DF0123FFFBCF24FDF0CF0B
:1015200087EE90E008952091DF0123FFF0CF86EE53
:1015300090E008952091DF0125FD16C008952091C7
:10154000DF0125FD14C008952091DF0126FD12C0A2
:1015500008952091DF0126FD10C0089583EE90E0EC
:10156000089582EE90E0089589E290E0089585E381
:1015700090E008958AE290E0089581E390E0C9CF79
:101580009091DF0192FF06C0282F2871283069F45E
:10159000877F846093FF06C0282F2871283161F46B
:1015A000877E846194FD877E0895282F24712430DE
:1015B00089F78B7F8860EECF282F2471243191F733
:1015C0008B7E8861EFCF90934F0180934E010895F9
:1015D000E0914E01F0914F01309721F00190F081A0
:1015E000E02D099480E00895E0914E01F0914F01C3
:1015F000309721F00280F381E02D09940895E09165
:101600004E01F0914F01309739F022E0DC012C932C
:101610000480F581E02D0994089520914C013091CA
:101620004D012817390771F090934D0180934C01BB
:10163000E0914E01F0914F01309721F00680F78143
:10164000E02D0994089520914A0130914B0128170B
:10165000390771F090934B0180934A01E0914E015C
:10166000F0914F01309721F00084F185E02D09942D
:10167000089585B7806885BF85B7806885BF089560
:101680000E94390B0C94470581E008950E94BB1716
:101690000E94F9030C943118BF92CF92DF92EF921F
:1016A000FF920F931F93CF93DF93CDB7DEB72A97A7
:1016B0000FB6F894DEBF0FBECDBF0E94E0040E94BB
:1016C000440B882309F471C081E5C82E81E0D82E2F
:1016D00010E000E0B02E802F0E941F05E82EF601DA
:1016E000F1906F01F81609F45AC08091C00181FD94
:1016F0000E94250590E080E0FE242F2D30E0482F49
:10170000B901082E02C0759567950A94E2F760FF4B
:1017100041C08E83BF8281E090E06C0102C0CC0C9E
:10172000DD1C4A95E2F72E2D30E02C213D21232BA4
:1017300009F480E088870E94C4178160782F9A8717
:1017400089874E815F8168858A850E94F60BF80142
:10175000EF5AFE4F80818C2580830E94C4190E941D
:10176000E80A90915001891789F10E94E80A809354
:1017700050012A960FB6F894DEBF0FBECDBFDF91A1
:10178000CF911F910F91FF90EF90DF90CF90BF907E
:101790000C94AF0601968530910509F0B0CF0F5F2C
:1017A0001F4F0830110509F095CF8FEF89838A8389
:1017B0001B820E94C4178160782F9D838C8349818E
:1017C0005A816B818D810E94F60BC7CF2A960FB686
:1017D000F894DEBF0FBECDBFDF91CF911F910F9167
:1017E000FF90EF90DF90CF90BF900895CF93DF935D
:1017F000CDB7DEB72B970FB6F894DEBF0FBECDBFC7
:101800004F83588769877A878B871E821D8285E080
:10181000FE013796DE01119601900D928A95E1F74F
:1018200049815A816B817C818D819E812B960FB677
:10183000F894DEBF0FBECDBFDF91CF910C94DA12CA
:10184000FC01808191810C94A715CF93C82F882328
:1018500009F4E6C08238C1F40E94E80A81FDE0C0C4
:1018600089E30E94D5150E9419162FEF81EE94E0AE
:10187000215080409040E1F700C0000089E30E94C1
:10188000DC15CF910C9419168338A1F40E94E80A54
:1018900080FDC6C083E50E94D5150E9419162FEF62
:1018A00081EE94E0215080409040E1F700C00000BC
:1018B00083E5E5CF8438A1F40E94E80A82FDB0C038
:1018C00087E40E94D5150E9419162FEF81EE94E04F
:1018D000215080409040E1F700C0000087E4CFCF66
:1018E0008CEF8C0F813A48F48C2F0E94D21B81110F
:1018F00097C08C2F0E94D515C4CF80E28C0F883002
:1019000048F4C77081E001C0880FCA95EAF70E94C9
:101910004F16B7CF8BE58C0F833068F481E890E0E9
:10192000C53A31F083E890E0C63A11F482E890E0DD
:10193000CF910C940D0B88E58C0F873108F068C0AF
:1019400082EE90E0C83A09F460C089EE90E0C93AAE
:1019500009F45BC08AEE90E0CA3A09F456C085EB00
:1019600090E0CB3A09F451C086EB90E0CC3A09F410
:101970004CC083EB90E0CB3B09F447C084EB90E094
:10198000CC3B09F442C087EB90E0CD3AF1F18CEC0E
:1019900090E0C03BD1F18DEC90E0CE3AB1F183E81C
:1019A00091E0CF3A91F18AE891E0C13B71F182E98F
:1019B00091E0C23B51F184E991E0C33B31F181E216
:1019C00092E0C43B11F183E292E0C53BF1F084E286
:1019D00092E0C63BD1F085E292E0C73BB1F086E2EF
:1019E00092E0C83B91F087E292E0C93B71F08FE64C
:1019F00090E0CD3B51F080E790E0CE3B31F090E0BD
:101A000080E0CA3B11F48AE292E0CF910C94230B60
:101A1000C03F30F08C2F0E94CD18CF910C94B91993
:101A2000CF910895882309F452C0823871F40E943E
:101A3000E80A81FF4CC089E30E94D5150E9419165F
:101A400089E30E94DC150C941916833859F40E941E
:101A5000E80A80FF3CC083E50E94D5150E94191654
:101A600083E5EFCF843859F40E94E80A82FF2FC043
:101A700087E40E94D5150E94191687E4E2CF9CEFF7
:101A8000980F913AF0F290E2980F983050F48770E6
:101A900091E001C0990F8A95EAF7892F0E945516A7
:101AA000D2CF9BE5980F933020F490E080E00C9427
:101AB0000D0B98E5980F973120F490E080E00C949E
:101AC000230B803F20F00E9435190C94B91908951A
:101AD000882321F00E944F160C941916089588232C
:101AE00021F00E9455160C94191608958F929F921A
:101AF000AF92BF92DF92EF92FF920F931F93CF931B
:101B0000DF937C01D62FC72FFC01058102950F7052
:101B1000128111110E946E160E941216D82E88236F
:101B200071F0112331F180E28D0F883010F182E0E5
:101B30000E94FC150E94121691E0D82ED926BC2EC8
:101B4000B2949FE0B922EB2DF0E0E755F24F0C94F0
:101B50000323BB0DBB0D0B0E0B0E520F4C0E520F81
:101B6000520F8E0E520F290F290FBD0F520F520F19
:101B7000C60FD12CE4CF0C2F0F70C07F11F002954F
:101B8000007F1123A9F0002359F080E28D0F8830E7
:101B900010F0D11109C0802F0E944F160E94191613
:101BA0008D2F0E94250C14C0802F0E946016F6CF46
:101BB0008D2F0E94120D002359F080E28D0F883086
:101BC00010F0D11124C0802F0E9455160E941916C2
:101BD000DD2009F4E2C10E94EF1580FDDEC1F701AE
:101BE00012820E94E9150E946D14C7010E94D90F4C
:101BF0000E94E915DF91CF911F910F91FF90EF9017
:101C0000DF90BF90AF909F908F900C948E14802F98
:101C10000E946616DBCFFC2FFF70BF2EC07FC03244
:101C200019F0B29480EFB822DD2339F0D13019F1E8
:101C3000112361F1002321F1B3CF112381F00111B0
:101C400006C00E9488168B290E94680DC1CF013002
:101C5000C1F70E9488168B290E948216B9CF011104
:101C600006C00E9485168B2D0E946F0DB1CF0130EA
:101C700009F4AECFF6CF112329F0063008F0A8CF33
:101C80008B2DE2CF053008F0A3CFEDCF002359F321
:101C90008D2F0E94120D9CCF112309F1D53F99F091
:101CA000D63FB9F0D43F49F48091D9019091DA013F
:101CB00081609093DA018093D9018D2F0E94CD1815
:101CC0000E94B91985CF8091D9019091DA01826083
:101CD000F0CF8091D9019091DA018460EACFD53FAD
:101CE00089F0D63FA9F0D43F49F48091D901909171
:101CF000DA018E7F9093DA018093D9018D2F0E94B3
:101D00003519DECF8091D9019091DA018D7FF2CF24
:101D10008091D9019091DA018B7FECCF8C2F837069
:101D200009F04BC0111136C02D2F22952695277032
:101D3000220F220F6D2F6F70862E912CB12CA12CAB
:101D4000022E04C0880C991CAA1CBB1C0A94D2F752
:101D500060E070E0CB01D4FF0FC06FE070E080E086
:101D600090E004C0660F771F881F991F2A95D2F74D
:101D70006095709580959095C695C695C370C23054
:101D800071F0A0F4682979298A299B29C13091F042
:101D90000E941F140E94E80A0E94AF0619CF68290A
:101DA00079298A299B290E943114F4CF0E941F149B
:101DB000C501B4010E940D14EDCF8695112311F0D9
:101DC0008C2F8170882331F32D2F22952695277033
:101DD000220F220F6D2F6F70862E912CB12CA12C0B
:101DE000022E04C0880C991CAA1CBB1C0A94D2F7B2
:101DF00060E070E0CB01D4FF0FC06FE070E080E0E6
:101E000090E004C0660F771F881F991F2A95D2F7AC
:101E10006095709580959095C695C695C370C230B3
:101E200051F080F4682979298A299B29C13071F001
:101E30000E94E414AFCF682979298A299B290E943E
:101E4000F614A8CF0E94E414C501B4010E94D21474
:101E5000A1CFE0E2ED0FE53108F070C0F0E0ED5CFD
:101E6000F04F0C940323480F480F480F480F480FBA
:101E7000480F480F480F480F480F480F480F480FAA
:101E8000480F480F480F650F710F780F7F0F890FAC
:101E9000DF708C2F8F71112391F00E946D148D2FA4
:101EA0000E94680DE8E0BE1609F474CFBE1608F46F
:101EB0008FCE86EF8B0D823008F46CCF89CE0E94D6
:101EC0008E148D2F0E946F0DEDCF112339F0053048
:101ED00048F78C2F8F710E94B114E4CF063010F7B1
:101EE000F8CF8C2F8F71112339F00E946D14DACF47
:101EF0008C2F8F711123C9F30E948E14D3CF11231D
:101F000029F08C2F8F710E945814CCCF0E9453144B
:101F1000C9CF112349F0CF718C2F0E946D1463E05B
:101F20008C2F0E94F315BECF81E00E94FC15023079
:101F300008F4B8CF82E00E94FC15B4CF112349F019
:101F4000002321F08D2F0E94250CACCF8C2F8F7198
:101F5000CCCF002379F0D93349F42FEF87EE93E00B
:101F6000215080409040E1F700C000008D2F0E947A
:101F7000120D98CF8C2F8F71BFCF4C2F4F706D2FBC
:101F8000C7010E9469080E94831322CE4C2F4F7014
:101F90006D2FC7010E946C081BCEDF91CF911F915E
:101FA0000F91FF90EF90DF90BF90AF909F908F9038
:101FB00008950F931F93CF93DF93EC01988189814C
:101FC0002B813C81232B39F08F3F19F481E09F3F17
:101FD00019F080E001C081E080FD17C0CE010E94B1
:101FE000C706882391F0688179818A810E94B115A2
:101FF0008C010E9408150E940A14B801CE01DF91DD
:10200000CF911F910F910C94760DDF91CF911F917D
:102010000F9108950E946E160E947F160E94191655
:102020000E94581A0C94B9190E94E3150C940A10D6
:102030000E945D160C941410E92FE295EF70E250A7
:10204000EE30E0F4F0E0E95DFF4E0C940323351030
:1020500035103E103E1040103E103E103E10351020
:10206000351045103E103E104510803F19F020F409
:10207000803E20F481E00895843FE1F380E00895FC
:10208000803EC0F3813FD1F7F5CF93FB882780F9DD
:1020900008950E94A7150C941C10CF93DF9300D0D5
:1020A00000D01F92CDB7DEB70F900F900F900F901A
:1020B0000F90DF91CF910895CF93DF9300D000D0A0
:1020C00000D0CDB7DEB726960FB6F894DEBF0FBEB0
:1020D000CDBFDF91CF9108951F93CF93DF93C09130
:1020E0005A0116E080915B018C1304C0DF91CF91FF
:1020F0001F910895D0E01C9FF0011D9FF00D112449
:10210000E45AFE4F408151816281738184819581BF
:102110000E945C102196C770E5CF40918C015091D0
:102120008D0160918E0170918F018091900190914D
:1021300091010C945C101F93CF93DF9380919101D8
:10214000807FD1F480918E018823B1F080915A0173
:10215000D0915B01B0918C01C0918D0140918F01B4
:1021600050919001A1E0BF3F09F0A0E0BA01609555
:10217000709516E0D81304C0DF91CF911F91089598
:1021800021E04115510521F02A2FCF3F09F020E031
:1021900090E020FD38C0189FF001199FF00D112428
:1021A000E45AFE4F21812C132EC020812B132BC00B
:1021B0002281211128C0238134812417350700F1A1
:1021C000241B350B24363105F0F4209191012F703A
:1021D00020612093910126E0289FF001299FF00DB6
:1021E0001124EF59FE4F80818F70806180838CE8CD
:1021F00091E00E94D90FDF91CF911F910C946C1048
:10220000260F371FDFCF01968770B4CFAF92BF92F2
:10221000CF92DF92EF92FF920F931F93CF93DF93B2
:10222000CDB7DEB761970FB6F894DEBF0FBECDBF56
:102230008C0185E0F801DE011D9601900D928A95D2
:10224000E1F7D8014C9111965C9111971296EC90A0
:1022500030918C0160918D0180918F01909190015E
:1022600021E0009731F06F3F19F421E03F3F09F082
:1022700020E0B22FB170BB2E20FD80C1F801C380D9
:10228000D480A0908E01AA2009F427C1C816D906CF
:10229000D0F1D601A81BB90BCD01FF24F3948436ED
:1022A000910508F0F12C80919101982F907FFF20EB
:1022B00009F4CEC0911187C0FE2C651329C03413D8
:1022C00027C0E11025C08F708061809391010E942A
:1022D0008D108CE891E00E94D90F80919101F80156
:1022E00085838F2D61960FB6F894DEBF0FBECDBFEC
:1022F000DF91CF911F910F91FF90EF90DF90CF90E2
:10230000BF90AF900895809590958C0D9D1DC5CF81
:1023100081E0CD2831F05F3F19F481E04F3F09F0B3
:1023200080E080FD24C081E08E25F82FF170DF2E43
:1023300080FF3FC080915A0120915B0136E08213FB
:1023400018C04D875E878D859E850E94A715292F11
:1023500022952F70223008F1243030F59F7009F15A
:10236000D80115969C91907FE1F4FB2CBACF80E0C8
:10237000DCCF90E0389FF001399FF00D1124E45A32
:10238000FE4F6181561306C06081461303C062810F
:102390006E110FC001968770D2CF9F7011F0882305
:1023A00021F3805E883008F3C8010E94D90FBD2C4C
:1023B000DCCFEE2009F495CF80919101816080936C
:1023C0009101F12C8ECF651314C0341312C0E110AB
:1023D00010C0F8018583C8010E94D90F86E0F8017A
:1023E000ACE8B1E001900D928A95E1F70E948D1062
:1023F00078CF4D875E878D859E850E944910882302
:1024000019F1EE2009F180919101803270F0209154
:102410008C0130918D0138872F831986DB86CA861F
:102420008C87CE0107960E94D90F86E0F801ACE8B0
:10243000B1E001900D928A95E1F70E949B100E94F5
:102440008D10FF24F3944DCFC8010E94D90FF9CF0E
:10245000911113C07C2DD98AC88A6E2D89890E945A
:102460004D108CE891E00E94D90F86E0ECE8F1E095
:10247000DF011D928A95E9F7B9CF651312C03413B5
:1024800010C0E1100EC0F8018583C8010E94D90F69
:10249000ECE8F1E086E0DF011D928A95E9F7FA2C7D
:1024A00020CF4D875E878D859E850E9449108823A9
:1024B00059F2EE2049F280919101803208F4B5CFB3
:1024C00020918C0130918D013A8329831B82DD821A
:1024D000CC828E83CE010196A6CFC816D90638F1DC
:1024E000F601E81BF90BCF01F12C8436910508F0B9
:1024F0003DC0FE2CEE2009F4A7CF651326C034138F
:1025000024C08091910180FD17C0982F907FA1F089
:10251000D80115968C931597903F09F45CCF982FAE
:10252000907F905F8F70892B15968C9354CF8095F8
:1025300090958C0D9D1DD8CF86E0F801ACE8B1E0F8
:1025400001900D928A95E1F7CCCE4D875E878D85FF
:102550009E850E944910811168CF80919101816010
:1025600080939101C8010E94D90FBBCE7C2DD98ADE
:10257000C88A6E2D89890E944D1077CFEE2009F40C
:1025800063CF4D875E878D859E850E944910F82E0A
:10259000882309F459CF86E0F801ACE8B1E0019056
:1025A0000D928A95E1F78CE891E00E94200C0E9440
:1025B0009B101CCF1F93CF93DF93CDB7DEB72C9723
:1025C0000FB6F894DEBF0FBECDBF4F835887698723
:1025D0007A878B879C87CE0107960E9406118823F5
:1025E00009F442C09F8188852A853B85232B39F0D9
:1025F0008F3F19F481E09F3F19F080E001C081E036
:1026000080FD08C04F81588569857A858B859C85BA
:102610000E945C1016E080915A0190915B0189172D
:1026200009F467C0819FC0011124845A9E4F0E9403
:102630000611882309F45DC0E0915A011E9FF00144
:102640001124E45AFE4F408151816281738184815B
:1026500095810E945C1080915A0190E001968770EC
:10266000992780935A01D7CF86E0FE013796DE0185
:10267000119601900D928A95E1F79F8188852A85B0
:102680003B85232B39F08F3F19F481E09F3F19F0F0
:1026900080E001C081E080FDBDCF20915B0130E092
:1026A000C90101968770992740915A014817190668
:1026B00099F096E0929FD001939FB00D1124A45AF7
:1026C000BE4FFE01319601900D929A95E1F78093ED
:1026D0005B010E946C109ECF0E94181010925B014B
:1026E00010925A0186E0ECE8F1E0DF011D928A9534
:1026F000E9F72C960FB6F894DEBF0FBECDBFDF9181
:10270000CF911F910895EF92FF920F931F93CF9354
:10271000DF938C01892B81F0F12CEE24E394E80106
:102720002196F8018491843770F4843008F05FC0FA
:102730008130B1F08230A1F1DF91CF911F910F91E3
:10274000FF90EF900895853709F44CC008F43DC020
:102750009CE7980F903780F78F770E94120D49C041
:102760000E5F1F4FFE01849190E2980F983060F445
:102770008770FE2D01C0FF0F8A95EAF78F2F0E9408
:1027800071160E94191602C00E94250C8F2D8150CF
:1027900030F2EFE9FFE03197F1F700C00000F7CF2A
:1027A0000E5F1F4FFE01849190E2980F983050F415
:1027B0008770FE2D01C0FF0F8A95EAF78F2F0E94C8
:1027C0007716DFCF0E94120DE1CF0E5F1F4FFE0183
:1027D000C491C150D8F28FE99FE00197F1F700C092
:1027E0000000F7CF0E5F1F4FFE01F490CFCF0E9485
:1027F000250C8E01CBCF08950C94FB130E94FC1383
:102800006093AF017093B0018093B1019093B201D6
:102810000C940A1008950C94FE130F931F930091CB
:10282000AF011091B0012091B1013091B201602B44
:10283000712B822B932B1F910F910C94FE130F93EE
:102840001F930091AF011091B0012091B10130911F
:10285000B20160237123822393231F910F910C9463
:10286000FE130F931F930091AF011091B0012091BF
:10287000B1013091B20160277127822793271F9100
:102880000F910C94FE130C94FB130C9443140E94B0
:1028900045146093AB017093AC018093AD019093AC
:1028A000AE010C940A1060E070E0CB010C94471468
:1028B0000F931F9341E050E060E070E08A019B01BC
:1028C00004C0000F111F221F331F8A95D2F7C901C0
:1028D000B8011F910F910C9447140F931F9341E07F
:1028E00050E060E070E004C0440F551F661F771F82
:1028F0008A95D2F78091AB019091AC01A091AD0186
:10290000B091AE018A019B01082B192B2A2B3B2B7E
:10291000C901B8011F910F910C9447140F931F9395
:1029200041E050E060E070E004C0440F551F661FB6
:10293000771F8A95D2F7CB01BA0160957095809583
:1029400090950091AB011091AC012091AD013091B7
:10295000AE0160237123822393231F910F910C9466
:1029600047140F931F9341E050E060E070E004C013
:10297000440F551F661F771F8A95D2F78091AB01D0
:102980009091AC01A091AD01B091AE018A019B0183
:10299000082719272A273B27C901B8011F910F9142
:1029A0000C9447140F931F930091AB011091AC014D
:1029B0002091AD013091AE01602B712B822B932BB6
:1029C0001F910F910C9447140F931F930091AB012B
:1029D0001091AC012091AD013091AE0160237123C3
:1029E000822393231F910F910C9447140F931F93ED
:1029F0000091AB011091AC012091AD013091AE017D
:102A000060277127822793271F910F910C944714F9
:102A10000895292F220F220F920F890F982F977058
:102A200071E001C0770F9A95EAF7869586958695AD
:102A300025E0829FC001112450E040E0A62FB0E0C5
:102A4000FC01E40FF51FEE56FE4F60819D01042E40
:102A500002C0369527950A94E2F721702195262722
:102A60002723262720834F5F5F4F4530510541F7CD
:102A70000895292F220F220F920F890F982F9770F8
:102A800086958695869545E0849F9001112470E097
:102A900060E080E0F901E60FF71FEE56FE4F40813F
:102AA00050E0092E02C0569547950A94E2F741700E
:102AB0005527062E01C0440F0A94EAF7842B6F5F56
:102AC0007F4F6530710531F70895BF92CF92DF9245
:102AD000EF92FF920F931F93CF93DF938C01C090DF
:102AE000AB01D090AC01E090AD01F090AE018091CF
:102AF000AF019091B001A091B101B091B201C82A8B
:102B0000D92AEA2AFB2ACFE1D0E0BC2ED701C601A0
:102B10000C2E04C0B695A795979587950A94D2F781
:102B200080FD0EC0219788F7B12C8B2DDF91CF91BE
:102B30001F910F91FF90EF90DF90CF90BF9008957D
:102B4000B8018C2F0E948908019761F3EECFCF93D3
:102B5000DF93EC010E946515BE01DF91CF910C94CB
:102B600089081F93CF93DF93EB019091590199232B
:102B700031F0CB01DF91CF911F910C94A7158823E1
:102B800079F0CB010E946515182F682FCE010E94A5
:102B90000915BE01812FDF91CF911F910C948908F7
:102BA000CB010E943915182FF4CF682F80910201B4
:102BB000909103010C943317682F8091020190913A
:102BC00003010C94351780910201909103010C943C
:102BD00037178091B30185958595859508958091E6
:102BE000B3018770089598E0899F90011124622BAA
:102BF0006093B3010C946D149091B3018095892377
:102C00008093B301282F277061F4282F082E000C21
:102C1000330B9217130629F08595859585950C94AD
:102C20008E1408959091B301977081E009F480E0CB
:102C30000895E0910201F09103018091BF0180832A
:102C4000E0910201F091030180819091BE01892BF6
:102C50008083E0910201F091030180819091BD0198
:102C6000892B80839091B401992381F0E091020136
:102C7000F09103018081892B8083809102019091E2
:102C800003010E94001781111092B401809102018A
:102C9000909103010C94F40A8091BF0108959091E2
:102CA000BF01892B8093BF010895982F9095809143
:102CB000BF0189238093BF0108951092BF01089539
:102CC0009091BE01892B8093BE010895982F909515
:102CD0008091BE0189238093BE0108951092BE01A8
:102CE00008959091BD01892B8093BD010895982F7F
:102CF00090958091BD0189238093BD010895109224
:102D0000BD0108958093B40108951092B40108950F
:102D10008091B401089590E080E00E94252321E095
:102D20008D3E9E4F09F020E0822F089582E090E0D2
:102D30000C941D2383E090E00C941D23682F83E006
:102D400090E00C942B2384E090E00C941D23682FDA
:102D500084E090E00C942B23AB01BC018FE090E069
:102D60000C943D23AB01BC0183E190E00C943D2326
:102D700060E070E0CB010C94B21660E070E0CB0133
:102D80000E94AC160C94B8166DEE7EEF90E080E0D9
:102D90000E94492360E082E090E00E942B2360E0E3
:102DA00083E090E00E942B231092AF011092B001BB
:102DB0001092B1011092B20160E084E090E00E94B4
:102DC0002B2360E085E090E00E942B2360E086E00A
:102DD00090E00E942B236FEF87E090E00E942B236E
:102DE00040E050E0BA0188E090E00E943D2360E0BE
:102DF0008DE090E00E942B230C94BD160C94C41619
:102E0000FC01329697E080E0915009F408952191F9
:102E10002223D1F38F5FF8CF9C01FC0132969FEF04
:102E200080E04191461751F09F3F19F4411101C0D4
:102E3000982F8F5F8630A9F79F3F09F40895290FD7
:102E4000311D97FD3A95F90162830895FC01329690
:102E500008962191261303C0DF0111971C92E817F1
:102E6000F907B9F708950C940C170C9426170296DD
:102E700026E0FC0111922A95E9F708950895089536
:102E80000C943F170E9440178091E501843049F16E
:102E90001092C10188E190E020E40FB6F894A89563
:102EA000809360000FBE2093600080E00E94AF0618
:102EB0000E94401783B7817F846083BF83B781609E
:102EC00083BF7894889583B78E7F83BF0FB6F894BD
:102ED000A8958091600088618093600010926000E6
:102EE0000FBE08950895CF930E943E170E94E004FC
:102EF0000E947217C0E08C2F0E941F05811105C02F
:102F0000CF5FC830C1F7CF91089581E0FCCF08951D
:102F10000C9487170E9418100E94E80A0E94AF06BE
:102F20000C9488171F920F920FB60F9211248F9353
:102F30009F93AF93BF938091C101811113C0809182
:102F4000DB019091DC01A091DD01B091DE014196A1
:102F5000A11DB11D8093DB019093DC01A093DD01E5
:102F6000B093DE01BF91AF919F918F910F900FBEF3
:102F70000F901F90189582E084BD93E095BD9AEF65
:102F800097BD80936E0008952FB7F8948091DB0170
:102F90009091DC01A091DD01B091DE012FBF089579
:102FA000CF92DF92EF92FF920F931F932FB7F89477
:102FB0004091DB015091DC016091DD017091DE01F7
:102FC0002FBF6A017B01EE24FF248C0130E020E05A
:102FD000C016D106E206F30650F0481B590BCA0191
:102FE0001F910F91FF90EF90DF90CF900895415087
:102FF0005109F3CF78941F920F920FB60F921124BC
:103000008F939F93AF93BF938091DB019091DC01ED
:10301000A091DD01B091DE010196A11DB11D80934B
:10302000DB019093DC01A093DD01B093DE01BF9141
:10303000AF919F918F910F900FBE0F901F90189599
:1030400087E797E7909301088093000888E19AE06A
:103050000FB6F894A895809360000FBE909360001F
:10306000FFCF0E948B16811102C00E94FE160E94A3
:1030700096168093C0010E94A31690E09093E00101
:103080008093DF010E949A16682F70E090E080E044
:103090000C940B148091C40180FF12C06091070151
:1030A00085E0689FB00111247595679575956795C2
:1030B00060387105A8F561157105A1F1862F089595
:1030C00081FF09C06091070185E0689FB00111246C
:1030D00075956795EDCF82FF07C06091070185E088
:1030E000689FB0011124E4CF2091C5012223A9F0EB
:1030F000909106016091070185E0689FB00111245D
:103100002917B0F6269FA001279F500D1124692F83
:1031100070E0CA010E94EF22CBCF65E070E0CECF15
:103120008FE7089581E008958091C40180FF0CC06D
:103130006091050170E075956795759567956115C6
:10314000710549F1862F089581FF06C06091050140
:1031500070E075956795F3CF6091050182FD0BC016
:103160009091C5019923A1F060910401809105011E
:10317000961738F0682F70E06038710500F38FE71C
:103180000895899FC001112470E00E94EF22F4CFBE
:1031900061E070E0D7CF81E00895803F31F40E9474
:1031A0004A1881958093C9010895813F19F40E94BE
:1031B0004A18F8CF823F31F40E944A1881958093D3
:1031C000C8010895833F19F40E944A18F8CF893F37
:1031D00029F40E9494188093CA0108958A3F21F42B
:1031E0000E9494188195F7CF8B3F31F40E94941878
:1031F00081958093CB0108958C3F19F40E94941817
:10320000F8CF843F31F48091C70181608093C7017A
:103210000895853F21F48091C7018260F7CF863FF2
:1032200021F48091C7018460F1CF873F21F4809120
:10323000C7018860EBCF883F21F48091C70180618E
:10324000E5CF8D3F31F48091C40181608093C4014A
:1032500008958E3F21F48091C4018260F7CF8F3FA3
:10326000B9F78091C4018460F1CF803FC1F48091AF
:10327000C90187FD1092C9018091C80181110EC05A
:103280008091C90181110AC08091CA01811106C0D3
:103290008091CB01811102C01092C5010895813F38
:1032A00029F48091C90118162CF3E6CF9091C8013A
:1032B000823F29F497FFE0CF1092C801DDCF833F12
:1032C00019F41916CCF3D8CF893F39F48091CA018B
:1032D000181694F61092CA01CFCF8A3F29F4809134
:1032E000CA0187FFC9CFF6CF8B3F39F48091CB015C
:1032F00087FFC2CF1092CB01BFCF8C3F29F48091C2
:10330000CB011816BCF3B8CF843F31F48091C701CC
:103310008E7F8093C701B0CF853F21F48091C70194
:103320008D7FF7CF863F21F48091C7018B7FF1CF4E
:10333000873F21F48091C701877FEBCF883F21F43D
:103340008091C7018F7EE5CF8D3F31F48091C4011C
:103350008E7F8093C40190CF8E3F21F48091C40171
:103360008D7FF7CF8F3F09F087CF8091C4018B7F8E
:10337000F0CF86EC91E00E94FF0A0E94C417909360
:10338000C3018093C20108951F93CF93DF9380916F
:10339000C2019091C3010E94D017AC019091C50168
:1033A0002091080130E0911106C0209109018AE0C6
:1033B000289F900111244217530780F08091C80183
:1033C000D091C9011091CA01C091CB0181110AC0ED
:1033D000D1116AC0111168C0C11166C0DF91CF91CF
:1033E0001F9108959F3F19F09F5F9093C501181694
:1033F00024F40E944A188093C8018091C80187FF75
:1034000005C00E944A1881958093C8011D1624F4B6
:103410000E944A188093C9018091C90187FF05C0A5
:103420000E944A1881958093C9013091C8013323C5
:10343000C1F02091C9012223A1F045EB3403C00162
:103440001124892F911101C081E08093C80145EBBF
:10345000240390011124832F311101C081E0809356
:10346000C901111624F40E9494188093CA01809116
:10347000CA0187FF05C00E94941881958093CA01F4
:103480001C1624F40E9494188093CB018091CB01E8
:1034900087FF05C00E94941881958093CB01DF912E
:1034A000CF911F910C94B9199F3F09F09DCFAECFDA
:1034B00086E0E6ECF1E0DF011D928A95E9F71092D3
:1034C000C5011092C4010895833081F128F4813040
:1034D00059F08230D1F00895853009F449C0B8F12F
:1034E000863009F456C0089580910901482F460F8F
:1034F0005527551F4F3F510524F4680F609309016C
:1035000008958FEF80930901089580910801482F55
:10351000460F5527551F4F3F510524F4680F609300
:10352000080108958FEF80930801089580910701A5
:10353000482F460F5527551F4F3F510524F4680F5C
:103540006093070108958FEF80930701089580919C
:103550000601482F460F5527551F4F3F510524F4AC
:10356000680F6093060108958FEF80930601089518
:1035700080910501482F460F5527551F4F3F510594
:1035800024F4680F6093050108958FEF809305017F
:10359000089580910401482F460F5527551F4F3F2E
:1035A000510524F4680F6093040108958FEF809310
:1035B00004010895833011F128F4813049F08230FC
:1035C00091F00895853081F120F18630C1F10895A0
:1035D00080910901681720F4861B809309010895E2
:1035E00010920901089580910801681720F4861B44
:1035F00080930801089510920801089580910701B1
:10360000681720F4861B8093070108951092070124
:10361000089580910601681720F4861B80930601A7
:10362000089510920601089580910501681720F40D
:10363000861B8093050108951092050108958091DD
:103640000401681720F4861B8093040108951092EA
:10365000040108950F931F9341E050E060E070E093
:103660008A019B0104C0000F111F221F331F8A957E
:10367000D2F7C901B8010E940B141F910F910C944D
:1036800018108732A8F58E3108F07BC08E3009F40F
:103690006DC058F4873009F45AC08B3009F44BC020
:1036A000863009F44AC080E00895863109F443C0A9
:1036B00068F48031C1F79091C001892F877F93FF13
:1036C00088608093C00183FD0FC035C0893199F1B6
:1036D0008B3149F79091C001892F8D7F91FF8260D6
:1036E0008093C00181FF27C08091C00181603BC0F1
:1036F000883309F150F4893221F0853311F0873293
:1037000091F680E00E942A1B16C08334D1F320F486
:103710008A3348F28953F6CF883429F60E9418106C
:103720002FEF83ED90E3215080409040E1F700C0FF
:1037300000000E94201881E008958091C001817FDF
:103740008E7F8093C00181E08093CD010895909198
:10375000C001892F8E7F90FF81608093C00180FD22
:10376000EACF897F877F8093C001E5CF9091C00128
:10377000892F8B7F92FF84608093C00182FDB4CF3C
:10378000DACF8D51BFCF80E008950C94C31B8E51CA
:103790008A3030F4E82FF0E0EE5DFE4F808108952E
:1037A00080E00895CF93C82F8091CD018130B1F092
:1037B00030F08230A9F11092CD0180E00DC00E945E
:1037C0004C168232D1F78C2F0E94C31B811118C076
:1037D0008C2F0E94411B8170CF9108950E944C163E
:1037E000823289F38C2F0E94C51B811110C0C43115
:1037F00081F048F4CB3059F0C03171F080E0EBCF6C
:1038000081E090E0E8CFC93221F0C833B9F781E018
:10381000E2CF1092CD01F2CF82E08093CD01F7CFBD
:10382000C93219F188F4C43101F120F4C73081F1B3
:1038300081E0D2CF82EE8C0F8630D0F78C2F0E94A1
:10384000C71B8093CC01F4CFCE3401F140F46AE081
:10385000CB3471F78091CC010E94641AE9CFC13555
:1038600079F061E0C235B1F3E3CF8091CC018823D8
:1038700019F01092CC01DCCF81E08093CD01ACCF68
:1038800061E08091CC010E94DA1AD2CF6AE0F9CFD0
:103890008EE18093090182E3809308018AE080939E
:1038A000070184E18093060188E08093050188E2A6
:1038B00080930401BDCF8091D60108950895CF93E0
:1038C000DF93EC010E94401E823011F08430F9F445
:1038D00082E08093E9008FEF9091E800815095FDA0
:1038E00006C095ED9A95F1F700008111F5CF809112
:1038F000E80085FF0CC050E040E066E070E0CE01DB
:103900000E945D1E8091E8008E778093E800DF9131
:10391000CF910895CF93DF93EC010E94401E823037
:1039200011F0843039F581E08093E9008FEF9091B8
:10393000E800815095FD06C095ED9A95F1F70000DD
:103940008111F5CF8091E80085FF14C050E040E080
:1039500068E070E0CE010E945D1E8091E8008E77E5
:103960008093E80088E0FE01AEECB1E001900D929A
:103970008A95E1F7DF91CF91089508958091E40150
:10398000811109C00E94ED1F0E944A208091E2002F
:1039900084608093E20008951092E40108950895F0
:1039A00008950C948A1742E061EC81E00E946B1F3D
:1039B00042E261EC82E00C946B1F8091E70183305E
:1039C00009F462C030F48130D9F1823009F49EC02C
:1039D00008958A3009F48AC08B3009F470C08930A8
:1039E00009F051C08091E601813209F04CC080910C
:1039F000EA019091EB01029708F045C08091E80040
:103A0000877F8093E8008091E80082FF38C0809132
:103A1000F3009091F200892798278927029729F4CB
:103A20008091F1008B7F813021F48091F1008093AF
:103A3000D6018091E8008B778093E8000C949F1F5B
:103A40008091E601813AF9F48091E800877F8093C4
:103A5000E8008091EA019091EB01892B61F468E024
:103A60008EEC91E070E00E94AC1E8091E8008B77B4
:103A70008093E800089560E090E080E0F3CF8091CB
:103A8000E5018111C0CF08958091E601813AD9F70F
:103A90008091EA019091EB01892BA9F78091E800D0
:103AA000877F8093E8008091E80080FFFCCF8091C1
:103AB00014018093F1008091E8008E77BDCF809152
:103AC000E601813201F78091EA019091EB01892BA7
:103AD000D1F68091E800877F8093E8000E949F1FC5
:103AE0008091E801809314010C9418108091E601F4
:103AF000813249F68091E800877F8093E8000E9438
:103B00009F1F8091E9018093D70108958091E6017C
:103B1000813A09F0B8CF8091E800877F8093E80070
:103B20008091E80080FFFCCF8091D701C2CF84B79D
:103B3000877F84BF0FB6F894A89580916000886154
:103B400080936000109260000FBE80E88093610057
:103B5000109261000E94400B0E94ED1F0E944A20BB
:103B60008091E20084608093E20078940E94D322E6
:103B70000E94460B8AE091E00E94E30A8091E501F1
:103B8000853019F00E944C0BF9CF0E9442178091AA
:103B9000E301882399F30E947317882379F30E9425
:103BA000471EECCF0C94D41D292F33272330310529
:103BB00071F158F421303105E9F02230310511F16D
:103BC00090E080E030E020E019C021323105C1F101
:103BD00022323105A9F780E490E022ED36E061154C
:103BE000710561F08FE490E023E836E06130710503
:103BF00029F0E6CF82E190E021E736E0FA01318357
:103C0000208308958BE390E026E336E0F7CF9927F1
:103C10008130910579F040F08230910571F0039781
:103C200079F6ECEFF5E002C0E2E3F6E0849190E093
:103C30009F01E4CFE4E1F6E0F9CFE2E0F6E0F6CF71
:103C400089E090E028E436E061157105B9F289E079
:103C500090E021E636E06130710581F2B1CF089540
:103C6000CF93C82F0E942F1EC093D801CF910895E3
:103C70008091E501843011F081E0089582E008959B
:103C80008091D801811102C00C94381E089580E102
:103C900089BD82E189BD09B400FEFDCF8091D800C5
:103CA0008F7D8093D8008091E00082608093E00057
:103CB0008091E00081FDFCCF0895AF92BF92CF923A
:103CC000DF92FF920F931F93CF93DF936C01EB0171
:103CD0008A010E94BE1FF82E811123C00115110513
:103CE00039F0F80180819181C81BD90BC80ED91E0B
:103CF000B12CA12C2097A9F08091E80085FD22C06D
:103D00008091E8008E778093E80001151105A1F0FD
:103D1000F80180819181A80EB91EB182A08285E050
:103D2000F82E8F2DDF91CF911F910F91FF90DF9093
:103D3000CF90BF90AF9008950E94BE1F8823D1F20C
:103D4000F82EEFCFF60181916F018093F10021975A
:103D5000FFEFAF1ABF0ACECFFC018091EC0190912A
:103D6000ED0186179707A0F06115710529F4909170
:103D7000E8009E779093E80090E06115710551F49A
:103D8000911108C08091E80082FF35C080E008955D
:103D9000BC01F2CF8091E5018823C9F18530C9F1DA
:103DA0008091E80083FD31C08091E80082FDEACF78
:103DB0008091E80080FFE1CF2091F3008091F20034
:103DC000322F282F6115710519F02830310558F070
:103DD00091E02830310509F090E02091E8002E773D
:103DE0002093E800CACF81918093F100615071095E
:103DF0002F5F3F4FE7CF8091E501882341F0853069
:103E000041F08091E80083FFBDCF81E0089582E01A
:103E1000089583E00895FC018091EC019091ED01FB
:103E200086179707A0F06115710529F48091E800C5
:103E30008E778093E80090E06115710551F491113F
:103E400008C08091E80082FF36C080E00895BC0180
:103E5000F2CF8091E5018823D1F18530D1F18091B5
:103E6000E80083FD32C08091E80082FDEACF8091B6
:103E7000E80080FFE1CF2091F3008091F200322F23
:103E8000282F6115710519F02830310558F091E09F
:103E90002830310509F090E08091E8008E7780931A
:103EA000E800CACF84918093F10031966150710986
:103EB0002F5F3F4FE6CF8091E501882341F08530A9
:103EC00041F08091E80083FFBCCF81E0089582E05B
:103ED000089583E00895982F973028F08F7080938D
:103EE000E90081E008959093E900242F762F50E0B7
:103EF000981731F07091EC002091ED005091F00096
:103F000021FD02C09F5FE8CF3091EB003E7F3093F0
:103F1000EB003091ED003D7F3093ED003091EB00F0
:103F200031603093EB007093EC002093ED005093E0
:103F3000F0002091EE0027FDE5CF80E0089580910C
:103F4000E60187FF13C08091E80082FF06C08091E0
:103F5000E8008B778093E80004C08091E50181112F
:103F6000F2CF08958091E5018823D9F38091E8008C
:103F700080FFF8CF8091E8008E77ECCF2091E400AD
:103F80003091E50085E69091EC0090FF06C090919D
:103F9000E80090FF06C080E008959091E80092FD4F
:103FA000FACF9091E501992391F0953091F090919D
:103FB000EB0095FD10C04091E4005091E5002417FE
:103FC000350709F381509A01F1F684E0089582E003
:103FD000089583E0089581E008950E945B200E9487
:103FE0006320E0EEF0E0808181608083E8EDF0E026
:103FF00080818F77808319BCA7EDB0E08C918E7F94
:104000008C9380818F7E80831092E40108950F93BA
:104010001F93CF93DF930E945B200E946320C8ED23
:10402000D0E088818F7788838881806888838881C1
:104030008F7D888319BC1092E5011092E1011092E6
:10404000E3011092E20100EE10E0F80180818B7F25
:10405000808388818160888342E060E080E00E9404
:104060006B1FE1EEF0E080818E7F8083E2EEF0E076
:10407000808181608083808188608083F801808175
:104080008E7F8083888180618883DF91CF911F91AB
:104090000F910895E8EDF0E080818F7E8083E7ED59
:1040A000F0E080818160808384E082BF81E0809342
:1040B000E4010C940720E8EDF0E080818E7F80839E
:1040C0001092E20008951092DA001092E100089533
:1040D0001F920F920FB60F9211242F933F934F937D
:1040E0005F936F937F938F939F93AF93BF93EF9360
:1040F000FF938091E10082FF0BC08091E20082FF7C
:1041000007C08091E1008B7F8093E1000E94D22262
:104110008091DA0080FF19C08091D80080FF15C01F
:104120008091DA008E7F8093DA008091D90080FF41
:1041300094C080E189BD82E189BD09B400FEFDCF54
:1041400081E08093E5010E94BE1C8091E10080FF28
:1041500019C08091E20080FF15C08091E2008E7F3F
:104160008093E2008091E20080618093E200809180
:10417000D80080628093D80019BC85E08093E50167
:104180000E94D01C8091E10084FF29C08091E20050
:1041900084FF25C080E189BD82E189BD09B400FEAC
:1041A000FDCF8091D8008F7D8093D8008091E10071
:1041B0008F7E8093E1008091E2008F7E8093E20009
:1041C0008091E20081608093E2008091E101882388
:1041D00009F449C084E08093E5010E94D11C8091DC
:1041E000E10083FF29C08091E20083FF25C0809118
:1041F000E100877F8093E10082E08093E5011092E7
:10420000E1018091E1008E7F8093E1008091E200E6
:104210008E7F8093E2008091E20080618093E200D3
:1042200042E060E080E00E946B1F8091F0008860B7
:104230008093F0000E94CF1CFF91EF91BF91AF914E
:104240009F918F917F916F915F914F913F912F91AE
:104250000F900FBE0F901F90189519BC1092E5019A
:104260000E94CC1C72CF8091E30087FD02C081E0E8
:10427000B2CF83E0B0CF1F920F920FB60F921124EE
:104280002F933F934F935F936F937F938F939F935E
:10429000AF93BF93CF93EF93FF93C091E900CF709B
:1042A0008091EC001092E9008091F000877F80936C
:1042B000F00078940E9477211092E9008091F0003C
:1042C00088608093F000C093E900FF91EF91CF9157
:1042D000BF91AF919F918F917F916F915F914F911E
:1042E0003F912F910F900FBE0F901F9018951F9325
:1042F000CF93DF93CDB7DEB7AA970FB6F894DEBFA2
:104300000FBECDBFE6EEF1E08091F100819321E098
:10431000EE3EF207C9F70E94DD1C8091E80083FFA2
:1043200044C08091E6019091E7019A3008F03DC0C9
:10433000E92FF0E0E256FE4D0C940323A821CE2194
:10434000D521CE21D5212C224E22D521A522B22243
:10435000803889F0823849F58091EA018F70873082
:1043600020F58093E9008091EB0085FB882780F998
:104370001092E90006C08091E2019091E301911151
:1043800082609091E800977F9093E8008093F1001D
:104390001092F1008091E8008E772DC0282F2D7F9C
:1043A00021F48823D1F0823059F18091E80083FF15
:1043B0000AC08091E800877F8093E8008091EB003D
:1043C00080628093EB00AA960FB6F894DEBF0FBE12
:1043D000CDBFDF91CF911F9108958091E801813089
:1043E00021F7933009F080E08093E3011092E90017
:1043F0008091E800877F8093E8000E949F1FD5CFBF
:104400008091E8018111F2CF8091EA018F702FEF46
:10441000280F263050F68093E9002091EB0020FF12
:10442000E5CF933031F48091EB0080628093EB0014
:10443000DDCF9091EB0090619093EB0021E030E0B4
:1044400001C0220F8A95EAF72093EA001092EA0051
:104450008091EB008860EACF8111A7CF1091E8012D
:104460001F778091E3008078812B8093E300809117
:10447000E800877F8093E8000E949F1F8091E800FA
:1044800080FFFCCF8091E30080688093E30083E0AD
:10449000111101C082E08093E50187CF80588230FE
:1044A00008F083CF8091E8019091E9018C3D23E0F1
:1044B0009207A1F583E08A838AE289834FB7F89453
:1044C000DE01139620E03EE051E2E32FF0E050934E
:1044D0005700E49120FF03C0E295EF703F5FEF705B
:1044E0008E2F90E0EA30C0F0C7968D939D932F5F9A
:1044F000243159F74FBF8091E800877F8093E8000F
:104500006AE270E0CE0101960E94AC1E8091E80044
:104510008B778093E80049CFC096E7CF6091EA019E
:104520007091EB01AE014F5F5F4F0E94D21DBC0145
:10453000892B09F43ACF9091E800977F9093E80097
:1045400089819A810E940B1FE1CF803809F02DCF1D
:104550008091E800877F8093E8008091E10180935B
:10456000F10018CF811121CF9091E801923008F02D
:104570001CCF8091E800877F8093E8009093E10151
:104580000E949F1F8091E101882331F084E0809395
:10459000E5010E94D31C09CF8091E30087FDF6CF8F
:1045A00081E0F5CF0895CF938091E501882399F0BC
:1045B000C091E900CF708091EC0080FD0EC080E0DA
:1045C000C82B1092E9008091E80083FD0E947721BA
:1045D000CF70C093E900CF91089580E8F1CF97FBA9
:1045E000072E16F4009407D077FD09D00E94092306
:1045F00007FC05D03EF4909581959F4F08957095E6
:1046000061957F4F0895EE0FFF1F0590F491E02D07
:104610000994AA1BBB1B51E107C0AA1FBB1FA61709
:10462000B70710F0A61BB70B881F991F5A95A9F75B
:1046300080959095BC01CD010895F999FECF92BD6A
:1046400081BDF89A992780B50895A8E1B0E042E0CD
:1046500050E00C945123262FF999FECF92BD81BDD5
:10466000F89A019700B4021639F01FBA20BD0FB6B0
:10467000F894FA9AF99A0FBE08950396272F0E948C
:104680002C230E942B23252F0E942C23242F0C94B3
:104690002C230196272F0E942C230C942B23DC0122
:1046A000CB01FC01F999FECF06C0F2BDE1BDF89A3D
:1046B000319600B40D9241505040B8F70895F894E7
:0246C000FFCF2A
:1046C2000501B5012808140A321E5B1C8A1C5F1CF6
:1046D2005E1CBD1C01F49392919432363435000075
:0C46E2000000010203040506070809009F
:00000001FF
